{
  "_format": "hh-sol-artifact-1",
  "contractName": "MyContract",
  "sourceName": "contracts/MyContract.sol",
  "abi": [
    {
      "anonymous": false,
      "inputs": [
        {
          "indexed": true,
          "internalType": "address",
          "name": "user",
          "type": "address"
        },
        {
          "indexed": false,
          "internalType": "string",
          "name": "name",
          "type": "string"
        },
        {
          "indexed": false,
          "internalType": "uint256",
          "name": "age",
          "type": "uint256"
        }
      ],
      "name": "Registered",
      "type": "event"
    },
    {
      "inputs": [],
      "name": "getMyInfo",
      "outputs": [
        {
          "internalType": "string",
          "name": "",
          "type": "string"
        },
        {
          "internalType": "uint256",
          "name": "",
          "type": "uint256"
        }
      ],
      "stateMutability": "view",
      "type": "function"
    },
    {
      "inputs": [
        {
          "internalType": "address",
          "name": "",
          "type": "address"
        }
      ],
      "name": "people",
      "outputs": [
        {
          "internalType": "string",
          "name": "name",
          "type": "string"
        },
        {
          "internalType": "uint256",
          "name": "age",
          "type": "uint256"
        }
      ],
      "stateMutability": "view",
      "type": "function"
    },
    {
      "inputs": [
        {
          "internalType": "string",
          "name": "_name",
          "type": "string"
        },
        {
          "internalType": "uint256",
          "name": "_age",
          "type": "uint256"
        }
      ],
      "name": "register",
      "outputs": [],
      "stateMutability": "nonpayable",
      "type": "function"
    },
    {
      "inputs": [
        {
          "internalType": "address",
          "name": "",
          "type": "address"
        }
      ],
      "name": "registered",
      "outputs": [
        {
          "internalType": "bool",
          "name": "",
          "type": "bool"
        }
      ],
      "stateMutability": "view",
      "type": "function"
    }
  ],
  "bytecode": "0x6080604052348015600f57600080fd5b50610c4a8061001f6000396000f3fe608060405234801561001057600080fd5b506004361061004c5760003560e01c806307de9735146100515780637daa10ce14610082578063b2dd5c07146100a1578063ea87152b146100d1575b600080fd5b61006b60048036038101906100669190610565565b6100ed565b60405161007992919061063b565b60405180910390f35b61008a610199565b60405161009892919061063b565b60405180910390f35b6100bb60048036038101906100b69190610565565b610325565b6040516100c89190610686565b60405180910390f35b6100eb60048036038101906100e69190610802565b610345565b005b60006020528060005260406000206000915090508060000180546101109061088d565b80601f016020809104026020016040519081016040528092919081815260200182805461013c9061088d565b80156101895780601f1061015e57610100808354040283529160200191610189565b820191906000526020600020905b81548152906001019060200180831161016c57829003601f168201915b5050505050908060010154905082565b60606000600160003373ffffffffffffffffffffffffffffffffffffffff1673ffffffffffffffffffffffffffffffffffffffff16815260200190815260200160002060009054906101000a900460ff16610229576040517f08c379a00000000000000000000000000000000000000000000000000000000081526004016102209061090a565b60405180910390fd5b60008060003373ffffffffffffffffffffffffffffffffffffffff1673ffffffffffffffffffffffffffffffffffffffff1681526020019081526020016000206040518060400160405290816000820180546102849061088d565b80601f01602080910402602001604051908101604052809291908181526020018280546102b09061088d565b80156102fd5780601f106102d2576101008083540402835291602001916102fd565b820191906000526020600020905b8154815290600101906020018083116102e057829003601f168201915b5050505050815260200160018201548152505090508060000151816020015192509250509091565b60016020528060005260406000206000915054906101000a900460ff1681565b600160003373ffffffffffffffffffffffffffffffffffffffff1673ffffffffffffffffffffffffffffffffffffffff16815260200190815260200160002060009054906101000a900460ff16156103d2576040517f08c379a00000000000000000000000000000000000000000000000000000000081526004016103c990610976565b60405180910390fd5b6040518060400160405280838152602001828152506000803373ffffffffffffffffffffffffffffffffffffffff1673ffffffffffffffffffffffffffffffffffffffff168152602001908152602001600020600082015181600001908161043a9190610b42565b506020820151816001015590505060018060003373ffffffffffffffffffffffffffffffffffffffff1673ffffffffffffffffffffffffffffffffffffffff16815260200190815260200160002060006101000a81548160ff0219169083151502179055503373ffffffffffffffffffffffffffffffffffffffff167f89b886e508b5806f8c28179176052458c2bd0f54106811773b56be2d51a14e6083836040516104e792919061063b565b60405180910390a25050565b6000604051905090565b600080fd5b600080fd5b600073ffffffffffffffffffffffffffffffffffffffff82169050919050565b600061053282610507565b9050919050565b61054281610527565b811461054d57600080fd5b50565b60008135905061055f81610539565b92915050565b60006020828403121561057b5761057a6104fd565b5b600061058984828501610550565b91505092915050565b600081519050919050565b600082825260208201905092915050565b60005b838110156105cc5780820151818401526020810190506105b1565b60008484015250505050565b6000601f19601f8301169050919050565b60006105f482610592565b6105fe818561059d565b935061060e8185602086016105ae565b610617816105d8565b840191505092915050565b6000819050919050565b61063581610622565b82525050565b6000604082019050818103600083015261065581856105e9565b9050610664602083018461062c565b9392505050565b60008115159050919050565b6106808161066b565b82525050565b600060208201905061069b6000830184610677565b92915050565b600080fd5b600080fd5b7f4e487b7100000000000000000000000000000000000000000000000000000000600052604160045260246000fd5b6106e3826105d8565b810181811067ffffffffffffffff82111715610702576107016106ab565b5b80604052505050565b60006107156104f3565b905061072182826106da565b919050565b600067ffffffffffffffff821115610741576107406106ab565b5b61074a826105d8565b9050602081019050919050565b82818337600083830152505050565b600061077961077484610726565b61070b565b905082815260208101848484011115610795576107946106a6565b5b6107a0848285610757565b509392505050565b600082601f8301126107bd576107bc6106a1565b5b81356107cd848260208601610766565b91505092915050565b6107df81610622565b81146107ea57600080fd5b50565b6000813590506107fc816107d6565b92915050565b60008060408385031215610819576108186104fd565b5b600083013567ffffffffffffffff81111561083757610836610502565b5b610843858286016107a8565b9250506020610854858286016107ed565b9150509250929050565b7f4e487b7100000000000000000000000000000000000000000000000000000000600052602260045260246000fd5b600060028204905060018216806108a557607f821691505b6020821081036108b8576108b761085e565b5b50919050565b7f4e6f742072656769737465726564000000000000000000000000000000000000600082015250565b60006108f4600e8361059d565b91506108ff826108be565b602082019050919050565b60006020820190508181036000830152610923816108e7565b9050919050565b7f416c726561647920726567697374657265640000000000000000000000000000600082015250565b600061096060128361059d565b915061096b8261092a565b602082019050919050565b6000602082019050818103600083015261098f81610953565b9050919050565b60008190508160005260206000209050919050565b60006020601f8301049050919050565b600082821b905092915050565b6000600883026109f87fffffffffffffffffffffffffffffffffffffffffffffffffffffffffffffffff826109bb565b610a0286836109bb565b95508019841693508086168417925050509392505050565b6000819050919050565b6000610a3f610a3a610a3584610622565b610a1a565b610622565b9050919050565b6000819050919050565b610a5983610a24565b610a6d610a6582610a46565b8484546109c8565b825550505050565b600090565b610a82610a75565b610a8d818484610a50565b505050565b5b81811015610ab157610aa6600082610a7a565b600181019050610a93565b5050565b601f821115610af657610ac781610996565b610ad0846109ab565b81016020851015610adf578190505b610af3610aeb856109ab565b830182610a92565b50505b505050565b600082821c905092915050565b6000610b1960001984600802610afb565b1980831691505092915050565b6000610b328383610b08565b9150826002028217905092915050565b610b4b82610592565b67ffffffffffffffff811115610b6457610b636106ab565b5b610b6e825461088d565b610b79828285610ab5565b600060209050601f831160018114610bac5760008415610b9a578287015190505b610ba48582610b26565b865550610c0c565b601f198416610bba86610996565b60005b82811015610be257848901518255600182019150602085019450602081019050610bbd565b86831015610bff5784890151610bfb601f891682610b08565b8355505b6001600288020188555050505b50505050505056fea264697066735822122084a492a3a897c997c2aabd91dd2bd0ae85d734f7c85872b71ef6a43be72180b964736f6c634300081c0033",
  "linkReferences": {},
  "deployedLinkReferences": {}
}